{
  "contractName": "ConvertLib",
  "abi": [
    {
      "inputs": [
        {
          "internalType": "uint256",
          "name": "amount",
          "type": "uint256"
        },
        {
          "internalType": "uint256",
          "name": "conversionRate",
          "type": "uint256"
        }
      ],
      "name": "convert",
      "outputs": [
        {
          "internalType": "uint256",
          "name": "convertedAmount",
          "type": "uint256"
        }
      ],
      "stateMutability": "pure",
      "type": "function",
      "constant": true
    }
  ],
  "bytecode": "0x60ea610039600b82828239805160001a60731461002c57634e487b7160e01b600052600060045260246000fd5b30600052607381538281f3fe730000000000000000000000000000000000000000301460806040526004361060335760003560e01c806396e4ee3d146038575b600080fd5b60476043366004606a565b6059565b60405190815260200160405180910390f35b600060638284608a565b9392505050565b60008060408385031215607b578182fd5b50508035926020909101359150565b600081600019048311821515161560af57634e487b7160e01b81526011600452602481fd5b50029056fea26469706673582212207975b443aa466eb5ff22f90138d7e28e1ed02f14bc3145100f7ccd21b9b68c6764736f6c63430008030033",
  "immutableReferences": {},
  "source": "pragma solidity ^0.8.3;\n\nlibrary ConvertLib{\n\tfunction convert(uint amount,uint conversionRate) public pure returns (uint convertedAmount)\n\t{\n\t\treturn amount * conversionRate;\n\t}\n}\n",
  "sourcePath": "/Users/jacky/Blockchain/metabuidl_project/contracts/ConvertLib.sol",
  "compiler": {
    "name": "solc",
    "version": "0.8.3+commit.8d00100c.Emscripten.clang"
  },
  "schemaVersion": "3.4.1",
  "updatedAt": "2021-09-18T23:16:46.294Z",
  "networkType": "ethereum",
  "devdoc": {
    "kind": "dev",
    "methods": {},
    "version": 1
  },
  "userdoc": {
    "kind": "user",
    "methods": {},
    "version": 1
  }
}