{
  "contractName": "Passify",
  "abi": [
    {
      "inputs": [],
      "stateMutability": "nonpayable",
      "type": "constructor"
    },
    {
      "anonymous": false,
      "inputs": [
        {
          "indexed": true,
          "internalType": "address",
          "name": "user",
          "type": "address"
        },
        {
          "indexed": true,
          "internalType": "uint256",
          "name": "recordId",
          "type": "uint256"
        },
        {
          "indexed": true,
          "internalType": "address",
          "name": "custodian",
          "type": "address"
        }
      ],
      "name": "Dispute",
      "type": "event"
    },
    {
      "anonymous": false,
      "inputs": [
        {
          "indexed": true,
          "internalType": "address",
          "name": "user",
          "type": "address"
        },
        {
          "indexed": true,
          "internalType": "uint256",
          "name": "recordId",
          "type": "uint256"
        }
      ],
      "name": "Pay",
      "type": "event"
    },
    {
      "inputs": [
        {
          "internalType": "address[]",
          "name": "custodians",
          "type": "address[]"
        }
      ],
      "name": "addRecord",
      "outputs": [],
      "stateMutability": "nonpayable",
      "type": "function"
    },
    {
      "inputs": [
        {
          "internalType": "uint256",
          "name": "recordId",
          "type": "uint256"
        }
      ],
      "name": "pay",
      "outputs": [],
      "stateMutability": "nonpayable",
      "type": "function"
    },
    {
      "inputs": [
        {
          "internalType": "uint256",
          "name": "recordId",
          "type": "uint256"
        },
        {
          "internalType": "address",
          "name": "custodian",
          "type": "address"
        }
      ],
      "name": "dispute",
      "outputs": [],
      "stateMutability": "nonpayable",
      "type": "function"
    },
    {
      "inputs": [],
      "name": "stake",
      "outputs": [],
      "stateMutability": "payable",
      "type": "function",
      "payable": true
    },
    {
      "inputs": [],
      "name": "getCustodians",
      "outputs": [
        {
          "internalType": "address[]",
          "name": "",
          "type": "address[]"
        }
      ],
      "stateMutability": "view",
      "type": "function",
      "constant": true
    },
    {
      "inputs": [
        {
          "internalType": "address",
          "name": "custodian",
          "type": "address"
        }
      ],
      "name": "getCustodianURI",
      "outputs": [
        {
          "internalType": "string",
          "name": "",
          "type": "string"
        }
      ],
      "stateMutability": "view",
      "type": "function",
      "constant": true
    },
    {
      "inputs": [
        {
          "internalType": "uint256",
          "name": "recordId",
          "type": "uint256"
        }
      ],
      "name": "getRecord",
      "outputs": [
        {
          "internalType": "uint8",
          "name": "",
          "type": "uint8"
        },
        {
          "internalType": "address[]",
          "name": "",
          "type": "address[]"
        }
      ],
      "stateMutability": "view",
      "type": "function",
      "constant": true
    }
  ],
  "bytecode": "0x608060405234801561001057600080fd5b5061063e806100206000396000f3fe6080604052600436106100705760003560e01c8063a765fbea1161004e578063a765fbea146100cc578063b5981e58146100ec578063c290d69114610119578063f3f1e6bf1461013957610070565b806303e9e609146100755780633a4b66f1146100ac5780635c848c2a146100ae575b600080fd5b34801561008157600080fd5b506100956100903660046104a7565b61015b565b6040516100a3929190610593565b60405180910390f35b005b3480156100ba57600080fd5b506100ac6100c93660046103e0565b50565b3480156100d857600080fd5b506100ac6100e73660046104bf565b61022d565b3480156100f857600080fd5b5061010c6101073660046103bf565b610269565b6040516100a39190610540565b34801561012557600080fd5b506100ac6101343660046104a7565b610316565b34801561014557600080fd5b5061014e610346565b6040516100a3919061052d565b600060606000838154811061018057634e487b7160e01b600052603260045260246000fd5b60009182526020822060029091020154815460ff9091169190859081106101b757634e487b7160e01b600052603260045260246000fd5b90600052602060002090600202016001018080548060200260200160405190810160405280929190818152602001828054801561021d57602002820191906000526020600020905b81546001600160a01b031681526001909101906020018083116101ff575b5050505050905091509150915091565b6040516001600160a01b03821690839033907f9518a2ff8942137aafabf1c76926e06102eb5a2abf4b5bf143e31afc7701aca790600090a45050565b6001600160a01b0381166000908152600260205260409020805460609190610290906105b7565b80601f01602080910402602001604051908101604052809291908181526020018280546102bc906105b7565b80156103095780601f106102de57610100808354040283529160200191610309565b820191906000526020600020905b8154815290600101906020018083116102ec57829003601f168201915b505050505090505b919050565b604051819033907f357b676c439b9e49b4410f8eb8680bee4223724802d8e3fd422e1756f87b475f90600090a350565b6060600180548060200260200160405190810160405280929190818152602001828054801561039e57602002820191906000526020600020905b81546001600160a01b03168152600190910190602001808311610380575b5050505050905090565b80356001600160a01b038116811461031157600080fd5b6000602082840312156103d0578081fd5b6103d9826103a8565b9392505050565b600060208083850312156103f2578182fd5b823567ffffffffffffffff80821115610409578384fd5b818501915085601f83011261041c578384fd5b81358181111561042e5761042e6105f2565b8060051b604051601f19603f83011681018181108582111715610453576104536105f2565b604052828152858101935084860182860187018a1015610471578788fd5b8795505b8386101561049a57610486816103a8565b855260019590950194938601938601610475565b5098975050505050505050565b6000602082840312156104b8578081fd5b5035919050565b600080604083850312156104d1578081fd5b823591506104e1602084016103a8565b90509250929050565b6000815180845260208085019450808401835b838110156105225781516001600160a01b0316875295820195908201906001016104fd565b509495945050505050565b6000602082526103d960208301846104ea565b6000602080835283518082850152825b8181101561056c57858101830151858201604001528201610550565b8181111561057d5783604083870101525b50601f01601f1916929092016040019392505050565b600060ff84168252604060208301526105af60408301846104ea565b949350505050565b600181811c908216806105cb57607f821691505b602082108114156105ec57634e487b7160e01b600052602260045260246000fd5b50919050565b634e487b7160e01b600052604160045260246000fdfea26469706673582212208b9d19ad84553d94b5bd5a4f6ff9349d0db9757a50dc25d6b7e02a61eda56cc864736f6c63430008030033",
  "immutableReferences": {},
  "source": "pragma solidity ^0.8.3;\n\nimport \"./IPassify.sol\";\n\n// Needs to implement all functions of IPassify \ncontract Passify is IPassify {\n    constructor() IPassify() {}\n\n    struct Record {\n        uint8 min; \n        address[] custodians;\n    } \n\n    Record[] _records; \n\n    address[] _custodians;\n    mapping(address => string) _custodianURIs; // the link to custodian information (stored on IPFS)\n    \n    /**\n     * @dev User calls this function when they register a new record. No fees paid.\n     */\n    function addRecord(address[] memory custodians) external override{\n        return;\n    }\n\n    /**\n     * @dev User calls this function when they wish to unlock their password \n     * (after verifying their identity).\n     *\n     * Emits a {Pay} event \n     */\n    function pay(uint256 recordId) external override {\n        emit Pay(msg.sender, recordId);\n    }\n\n    /**\n     * CURRENTLY UNIMPLEMENTED\n     * @dev User calls this function when they contend that custodians have not sent \n     * the correct information\n     * \n     * Emits a {Dispute} event \n     */\n    function dispute(uint256 recordId, address custodian) external override{\n        emit Dispute(msg.sender, recordId, custodian);\n    }\n\n    /**\n     * @dev Custodian calls this function to register their service on our platform\n     * Requirement:\n     * msg.value >= fixed stake amount\n     */\n    function stake() payable external override{\n        return;\n    }\n\n    /**\n     * @dev Returns all registered custodians. \n    */ \n    function getCustodians() external override view returns(address[] memory) {\n        return _custodians;\n    }\n\n    /**\n     * @dev Returns the URI that holds custodian information. \n    */\n    function getCustodianURI(address custodian) external override view returns(string memory) {\n        return _custodianURIs[custodian]; \n    }\n\n    function getRecord(uint256 recordId) external override view returns(uint8, address[] memory) {\n        return (_records[recordId].min, _records[recordId].custodians);\n    }\n}",
  "sourcePath": "/Users/jacky/Blockchain/metabuidl_project/contracts/Passify.sol",
  "compiler": {
    "name": "solc",
    "version": "0.8.3+commit.8d00100c.Emscripten.clang"
  },
  "schemaVersion": "3.4.1",
  "updatedAt": "2021-09-18T23:16:46.298Z",
  "networkType": "ethereum",
  "devdoc": {
    "kind": "dev",
    "methods": {
      "addRecord(address[])": {
        "details": "User calls this function when they register a new record. No fees paid."
      },
      "dispute(uint256,address)": {
        "details": "User calls this function when they contend that custodians have not sent  the correct information  Emits a {Dispute} event "
      },
      "getCustodianURI(address)": {
        "details": "Returns the URI that holds custodian information. "
      },
      "getCustodians()": {
        "details": "Returns all registered custodians. "
      },
      "getRecord(uint256)": {
        "details": "Returns all registered custodians. "
      },
      "pay(uint256)": {
        "details": "User calls this function when they wish to unlock their password  (after verifying their identity). Emits a {Pay} event "
      },
      "stake()": {
        "details": "Custodian calls this function to register their service on our platform Requirement: msg.value >= fixed stake amount"
      }
    },
    "version": 1
  },
  "userdoc": {
    "kind": "user",
    "methods": {
      "dispute(uint256,address)": {
        "notice": "CURRENTLY UNIMPLEMENTED"
      }
    },
    "version": 1
  }
}